:100000000C9473000C9490000C9490000C9490004D
:100010000C9490000C9490000C9490000C94900020
:100020000C9490000C9490000C9490000C94900010
:100030000C9490000C9490000C9490000C94900000
:100040000C9490000C9490000C9490000C949000F0
:100050000C949000050108010C0110011401180115
:100060001C01200108000000BE922449123EABAAE8
:10007000AA2ABECDCCCC4C3E00000080BEABAAAAC2
:10008000AA3E00000000BF000000803F000000000A
:1000900000084178D3BB4387D1133D190E3CC3BD43
:1000A0004282AD2B3E68EC8276BED98FE1A93E4CF0
:1000B00080EFFFBE01C4FF7F3F0000000000076328
:1000C0004236B79BD8A71A39685618AEBAAB558CCA
:1000D0001D3CB7CC5763BD6DEDFD753EF617723113
:1000E000BF000000803F11241FBECFE5D8E0DEBF77
:1000F000CDBF10E0A0E6B0E0ECECFFE002C0059060
:100100000D92AC36B107D9F720E0ACE6B0E001C003
:100110001D92A437B207E1F70E9437010C94E4075F
:100120000C94000096B1987F96B98031D9F038F4DC
:10013000843081F0883091F0823021F507C080341E
:10014000C9F08038D9F08032E9F410C086B18160FE
:1001500086B9089586B1826086B9089586B18360B4
:1001600086B9089586B1846086B9089586B18560A0
:1001700086B9089586B1866086B9089586B187608C
:1001800086B9089586B186B9089597B19F7397B9D6
:10019000813039F018F0823041F00BC087B187B957
:1001A000089587B1806487B9089587B1806C87B955
:1001B000089587B187B90895CF93DF93D62FC42FC1
:1001C00096B1906896B996B1906296B90E949200E5
:1001D0008D2F0E94C500CC2321F087B1806287B9A2
:1001E00003C087B18F7D87B97894DF91CF9108954F
:1001F00097B1907C97B9482F50E04830510520F5D1
:10020000FA01E65DFF4F0C94DE0787B187B90895C8
:1002100087B1816087B9089587B1826087B90895F1
:1002200087B1836087B9089587B1846087B90895DD
:1002300087B1856087B9089587B1866087B90895C9
:1002400087B1876087B9089597B18F71892B87B976
:1002500008950E94F80086B1806486B9349BFECF71
:1002600024B185B190E0982F8827822B08958FEFD5
:1002700081BB84B3816084BB84B3826084BB84B35C
:10028000886084BB84B3806284BB84B3806884BB91
:100290008AB38E7F8ABB8AB38D7F8ABB8AB38B7FFA
:1002A0008ABB8AB3877F8ABB8AB38F7E8ABB87B3B8
:1002B0008F7787BB87B38F7B87BB8AB38F7D8ABBE2
:1002C0008AB38F7B8ABB40E061E081E00E94DC0062
:1002D00043E061E081E00E94DC0087EA91E601975B
:1002E000F1F700C0000080E00E9429010E94CF03C6
:1002F0004B015C0183E00E9429010E94CF036B0146
:100300007C01B69BFECF80916E0090916F00892B8F
:10031000E9F580916C0090916D00892BB9F5C99B2E
:100320002FC085B3816085BB9FEDE3E9F4E0915078
:10033000E040F040E1F700C0000085B38E7F85BB50
:1003400020E030E01AC085B3826085BB4FE58AEEBD
:1003500090E0415080409040E1F700C0000085B33C
:100360008D7F85BBEFE5FAEE40E0E150F040404084
:10037000E1F700C000002F5F3F4F233031051CF331
:1003800081E090E090936F0080936E0080916E000A
:1003900090916F00019709F0B4CF80916C0090911B
:1003A0006D00892B09F0ADCFCA9B04C085B3877F50
:1003B00085BB4DC085B3816085BB8FE39DE0E3E0E5
:1003C00081509040E040E1F700C0000085B38E7F8F
:1003D00085BB20E030E01AC085B3826085BBFFE5B5
:1003E0004AEE80E0F15040408040E1F700C000005C
:1003F00085B38D7F85BB9FE5EAEEF0E09150E0404C
:10040000F040E1F700C000002F5F3F4F233031057F
:100410001CF385B3886085BB2FE34DE083E021505A
:1004200040408040E1F700C0000085B3877F85BB76
:100430009FE3EDE0F3E09150E040F040E1F700C0D1
:10044000000081E090E090936D0080936C008091BB
:100450006C0090916D00019709F053CF83E00E94EA
:1004600029010E940404A70196010E94AE0442E003
:1004700050E00E9435040E94200570937100609343
:100480007000603D7740BCF4CE9B15C04FE38DE01B
:1004900093E0415080409040E1F700C0000085B3F8
:1004A000806285BBEFE3FDE023E0E150F0402040B7
:1004B000E1F700C0000085B38F7D85BB80E00E941E
:1004C00029010E940404A50194010E94AE0442E0A7
:1004D00050E00E9435040E942005709373006093E1
:1004E00072006E3671050CF00CCFCE9943C009CF67
:1004F00029E022BBE7EAF1E63197F1F700C00000FE
:1005000028E022BBE7EAF1E63197F1F700C00000EE
:100510002CE022BBE7EAF1E63197F1F700C00000DA
:1005200024E022BBE7EAF1E63197F1F700C00000D2
:1005300026E022BBE7EAF1E63197F1F700C00000C0
:1005400022E022BBE7EAF1E63197F1F700C00000B4
:1005500023E022BBE7EAF1E63197F1F700C00000A3
:1005600021E022BBE7EAF1E63197F1F700C0000095
:10057000019602C080E090E0843091050CF4B8CF81
:1005800089E082BB87EA91E60197F1F700C000009D
:100590009FE3EDE0F3E09150E040F040E1F700C070
:1005A000000080E090E021C029E022BBE7EAF1E60C
:1005B0003197F1F700C0000023E022BBE7EAF1E643
:1005C0003197F1F700C0000026E022BBE7EAF1E630
:1005D0003197F1F700C000002CE022BBE7EAF1E61A
:1005E0003197F1F700C00000019684309105E4F2E4
:1005F00089E082BB87EA91E60197F1F700C000002D
:10060000CC9B7FCE85B3806885BB9FE7EAE1F6E0AF
:100610009150E040F040E1F700C0000085B38F77D3
:1006200085BB80E090E041C020E922BBE7EAF1E62B
:100630003197F1F700C0000020E822BBE7EAF1E6BD
:100640003197F1F700C0000020EC22BBE7EAF1E6A9
:100650003197F1F700C0000020E422BBE7EAF1E6A1
:100660003197F1F700C0000020E622BBE7EAF1E68F
:100670003197F1F700C0000020E222BBE7EAF1E683
:100680003197F1F700C0000020E322BBE7EAF1E672
:100690003197F1F700C0000020E122BBE7EAF1E664
:1006A0003197F1F700C000000196843091050CF4F9
:1006B000BBCF80E982BB87EA91E60197F1F700C0E2
:1006C000000080E090E021C020E922BBE7EAF1E6EB
:1006D0003197F1F700C0000020E322BBE7EAF1E622
:1006E0003197F1F700C0000020E622BBE7EAF1E60F
:1006F0003197F1F700C0000020EC22BBE7EAF1E6F9
:100700003197F1F700C00000019684309105E4F2C2
:1007100080E982BB87EA91E60197F1F700C000000B
:1007200085B3877F85BB85B38F7D85BB9FE7E4E875
:10073000FEE19150E040F040E1F700C00000E1CD63
:10074000CF92DF92EF92FF92BC01990F880B990B29
:100750000E94580520E030E040E85AE30E943C0641
:1007600020E030E040EA50E40E943C066B017C014E
:100770009B01AC0160E070E080EA90E40E944104DB
:10078000A70196010E94AE0420E030E040E251E46F
:100790000E943C06FF90EF90DF90CF900895CF929B
:1007A000DF92EF92FF920F931F93CF93DF938C0111
:1007B000C0E0D0E0C12CD12C76010CC0C8010E9451
:1007C000A0039B01AC01C701B6010E9442046B016A
:1007D0007C012196C436D1058CF320E030E048EC52
:1007E00052E4C701B6010E94AE0426E636E64EE1A9
:1007F00051E40E94AE04DF91CF911F910F91FF90C1
:10080000EF90DF90CF90089520E030E002C02F5F9E
:100810003F4F24363105DCF3BC01990F880B990B4F
:100820000E9458050895CF93DF93EA010E94E405E2
:100830002C813D814E815F810E944104288539854C
:100840004A855B850E94AE04288139814A815B819B
:100850000E9442049B01AC0160E070E080E291E400
:100860000E94A906DF91CF9108954230510529F4E5
:1008700040E650E00E941304089560E070E0CB0170
:1008800008955058BB27AA270E9459040C94AA0522
:100890000E949C0538F00E94A30520F039F49F3F88
:1008A00019F426F40C9499050EF4E095E7FB0C94EA
:1008B0009305E92F0E94BB0558F3BA176207730727
:1008C0008407950720F079F4A6F50C94DD050EF465
:1008D000E0950B2EBA2FA02D0B01B90190010C0150
:1008E000CA01A0011124FF27591B99F0593F50F468
:1008F000503E68F11A16F040A22F232F342F4427C0
:10090000585FF3CF469537952795A795F0405395B7
:10091000C9F77EF41F16BA0B620B730B840BBAF087
:100920009150A1F0FF0FBB1F661F771F881FC2F7F2
:100930000EC0BA0F621F731F841F48F48795779506
:100940006795B795F7959E3F08F0B0CF9395880FC0
:1009500008F09927EE0F9795879508950E94C20495
:100960000C94AA050E94A30558F00E949C0540F033
:1009700029F45F3F29F00C94930551110C94DE0586
:100980000C9499050E94BB0568F39923B1F3552394
:1009900091F3951B550BBB27AA2762177307840792
:1009A00038F09F5F5F4F220F331F441FAA1FA9F328
:1009B00035D00E2E3AF0E0E832D091505040E69516
:1009C000001CCAF72BD0FE2F29D0660F771F881F77
:1009D000BB1F261737074807AB07B0E809F0BB0B6A
:1009E000802DBF01FF2793585F4F3AF09E3F51057E
:1009F00078F00C9493050C94DE055F3FE4F3983E89
:100A0000D4F3869577956795B795F7959F5FC9F766
:100A1000880F911D9695879597F90895E1E0660FE7
:100A2000771F881FBB1F621773078407BA0720F060
:100A3000621B730B840BBA0BEE1F88F7E0950895C9
:100A40000E9427056894B1110C94DE0508950E9458
:100A5000C30588F09F5798F0B92F9927B751B0F088
:100A6000E1F0660F771F881F991F1AF0BA95C9F732
:100A700014C0B13091F00E94DD05B1E008950C94EE
:100A8000DD05672F782F8827B85F39F0B93FCCF3A1
:100A9000869577956795B395D9F73EF490958095AF
:100AA000709561957F4F8F4F9F4F0895E89409C0CF
:100AB00097FB3EF490958095709561957F4F8F4F91
:100AC0009F4F9923A9F0F92F96E9BB279395F695A7
:100AD000879577956795B795F111F8CFFAF4BB0F25
:100AE00011F460FF1BC06F5F7F4F8F4F9F4F16C089
:100AF000882311F096E911C0772321F09EE8872F13
:100B0000762F05C0662371F096E8862F70E060E0CE
:100B10002AF09A95660F771F881FDAF7880F969547
:100B2000879597F9089597F99F6780E870E060E0EE
:100B300008959FEF80EC089500240A941616170676
:100B400018060906089500240A94121613061406BE
:100B500005060895092E0394000C11F4882352F021
:100B6000BB0F40F4BF2B11F460FF04C06F5F7F4FD9
:100B70008F4F9F4F089557FD9058440F551F59F0C0
:100B80005F3F71F04795880F97FB991F61F09F3F7A
:100B900079F087950895121613061406551FF2CFA3
:100BA0004695F1DF08C0161617061806991FF1CFF3
:100BB00086957105610508940895E894BB2766271A
:100BC0007727CB0197F908950E94F40529ED3BE5BD
:100BD0004EED5EE30C943C0616F00C9433070C9437
:100BE000990568940C9493050E94C305A8F3992372
:100BF000C1F3AEF3DF93CF931F930F93FF92C92FEF
:100C0000DD2788232AF02197660F771F881FDAF7E0
:100C100020E030E040E85FEB9FE3883920F0803E41
:100C200038F021968F770E944204E4E6F0E004C099
:100C30000E944204E1E9F0E00E9441078B01BE01FD
:100C4000EC01FB2E6F5771097595771F880B990B77
:100C50000E94580528E132E741E35FE30E944F0616
:100C6000AF2D9801AE01FF900F911F91CF91DF91B1
:100C70000E9459040C94AA050E944F060C94AA05E0
:100C80000E949C0538F00E94A30520F0952311F0E6
:100C90000C9493050C94990511240C94DE050E9484
:100CA000BB0570F3959FC1F3950F50E0551F629FF0
:100CB000F001729FBB27F00DB11D639FAA27F00DB5
:100CC000B11DAA1F649F6627B00DA11D661F829FDC
:100CD0002227B00DA11D621F739FB00DA11D621FC1
:100CE000839FA00D611D221F749F3327A00D611DDE
:100CF000231F849F600D211D822F762F6A2F1124C0
:100D00009F5750409AF0F1F088234AF0EE0FFF1FF2
:100D1000BB1F661F771F881F91505040A9F79E3F49
:100D2000510580F00C9493050C94DE055F3FE4F3CD
:100D3000983ED4F3869577956795B795F795E7959F
:100D40009F5FC1F7FE2B880F911D9695879597F9A8
:100D50000895FA01EE0FFF1F309621053105A1F12C
:100D60006115710561F48038BFE39B0749F1689410
:100D70009038810561F08038BFEF9B0741F09923DF
:100D80004AF5FF3FE1053105210519F1E894089482
:100D9000E795D901AA2329F4AB2FBE2FF85FD0F332
:100DA00010C0FF5F70F4A695E0F7F73950F019F026
:100DB000FF3A38F49F779F930DD00F9007FC90581F
:100DC000089546F00C94990560E070E080E89FE398
:100DD00008954FE79F775F934F933F932F930E9420
:100DE000F4052F913F914F915F910E943C060C9426
:100DF000010729F416F00C9493050C94DD050C946E
:100E000099050E94C305A8F39638A0F707F80F923A
:100E1000E8942BE33AEA48EB5FE70E9452060F9210
:100E20000F920F924DB75EB70F920E94AA07EEEB9A
:100E3000F0E00E9441074F915F91EF91FF91E5959E
:100E4000EE1FFF1F49F0FE57E0684427EE0F441FD6
:100E5000FA95E1F74195550B0E9474070F9007FE34
:100E60000C94680708959F3F31F0915020F48795C6
:100E700077956795B795880F911D9695879597F902
:100E80000895DF93CF931F930F93FF92EF92DF921A
:100E90007B018C01689406C0DA2EEF010E944F0698
:100EA000FE01E894A5912591359145915591A6F3C0
:100EB000EF010E945904FE019701A801DA9469F735
:100EC000DF90EF90FF900F911F91CF91DF910895E8
:100ED0009B01AC0160E070E080E89FE30C94AE04FD
:100EE0000C9493050C9433070E94C305D8F39923FF
:100EF000C9F3940F511DA3F39150504094F059F051
:100F0000882332F0660F771F881F91505040C1F739
:100F10009E3F51052CF7880F911D9695879597F95F
:100F200008955F3FACF0983E9CF0BB27869577957F
:100F30006795B79508F4B1609395C1F7BB0F58F763
:100F400011F460FFE8CF6F5F7F4F8F4F9F4FE3CF6C
:100F50000C94DE05FA01DC01AA0FBB1F9B01AC015A
:100F6000BF5728F4222733274427507820C0B75191
:100F700090F4AB2F0024469537952795011CA39537
:100F8000D2F3002071F0220F331F441FB395DAF320
:100F90000ED00C94410461307105A0E88A07B9466F
:100FA00030F49B01AC01662777278827907830962C
:100FB00021F020833183428353830895EE0FFF1F76
:0C0FC0000590F491E02D0994F894FFCF07
:0C0FCC00333313405839343EE926F1BE9F
:00000001FF
